:100E5600022400000A30F9A4B0999282F88090C06A
:0E0E66000C080102030405060708090000003D
:040E9000F8E6F5A0EB
:100E9400758902758CFFE4F58AD28C308DFDC28C85
:030EA400C28D22DA
:100E2A007580F874302515120E907580F47430258B
:100E3A0017120E907580F274302519120E90758073
:0C0E4A00F17430251BF8E6F5A0020E94B0
:100E7500E4FDFCC3ED9FEE6480F8EC648098500AB5
:0A0E8500120E940DBD00010C80E96F
:010E8F002240
:100D8800AB05AA048F828E8375808F85181A851902
:100D98001B8520228521237FFA7E00120E75851679
:100DA80018851719851E20851F21120E75851416A2
:100DB800851517851C1E851D1F120E7585831485C4
:070DC80082158A1C8B1D221D
:100B8100D293D292D291C290209409E4F540F541DA
:100B9100F9020C4D20950BE4F540754101790102F4
:100BA1000C4D20960BE4F5407541027902020C4D83
:100BB100D293D292D290C29120940B754001E4F568
:100BC100417903020C4D20950A7540017541017967
:100BD10004807920960A7540017541027905806C7F
:100BE100D293D291D290C29220940A754002E4F538
:100BF100417906805720950A7540027541017907B0
:100C0100804A20960A7540027541027908803DC2EA
:100C110093D292D291D29020940A754003E4F54187
:100C21007909802820950A75400375410179098069
:100C31001B20960A7540037541027909800ED293F3
:100C4100D292D291D290120E2A020B81E54075F018
:100C510003A424082541F8E6FD75800FE9FF7E0015
:050C61007C00020D887B
:100A9400AE1EAF1F7C007D0A1209E9E51D2FFBE5A0
:100AA4001C3EFAAE20AF217D641209E9EF2BFBEE68
:100AB4003AFAAE22AF237C037DE81209E9EF2BFF5B
:100AC400EE3AFE7C007D031209FBEF2432FFE43E84
:100AD400FEAD07FC12092FA804A905AA06AB07E47A
:100AE400FFFE7D807C3F120803E4FBFAF978401294
:100AF40008037B517AA0799178351208038F3F8ED1
:100B04003E8D3D8C3C7F007EFF7D7F7C47AB3FAAC2
:100B14003EA93DA83C1208A04041753A00753B012E
:100B24007F007EFF7D7F7C47AB3FAA3EA93DA83C6A
:100B34001208A0402BE53B25E0F53BE53A33F53AB6
:100B4400AF3FAE3EAD3DAC3CE4FBFAF97840120851
:100B5400038F3F8E3E8D3D8C3C80C5E4F53AF53BDA
:100B6400AF3FAE3EAD3DAC3C1209191209688E266A
:0C0B74008F27E526FFEFF528E527F52F79
:010B80002252
:03001B00020DFDD6
:100DFD00C0E0852F8B85288DE52E452D7014B2B75B
:100E0D00C28E853A2D853B2E852F8B85288DD28ED2
:0D0E1D008008E52E152E7002152DD0E03254
:100EA700E4FF30B2FD7FFF20B2027FFF1FEFD39434
:030EB7000050F4F4
:010EBA002215
:03000300020C6686
:100C6600C0E0C0F0C083C082C0D075D000C000C054
:100C760001C002C003C004C005C006C007120EA70B
:100C8600E5254524701B120A94853A2D853B2E8551
:100C96002F8B85288DD28EC2B775240075250180CD
:100CA6003AC28EC28F752400752500751A00751B11
:100CB6000975180075190975160075170975140058
:100CC60075150975220075230075200075210075BC
:100CD6001E00751F00751C00751D00D007D006D0BC
:100CE60005D004D003D002D001D000D0D0D082D01D
:060CF60083D0F0D0E032D3
:100DCF00E58954F34410F589D2ABD2A8D28AD2AFB9
:100DDF00E4F524F525F51A751B09F518751909F5AC
:0E0DEF0016751709F514751509120B8180FB96
:100800000209DEEC5D046005E8590470030209D4B6
:1008100012099F580460F6EC4860F2EC7004FDFE8B
:10082000FF22C860DB2481C85009C39860025006CB
:100830000209DB9850CAF582E9294B4A7005AB8260
:100840000209CA75F0007C1A7880C3EF9BEE9AED1E
:1008500099400DC3EF9BFFEE9AFEED99FDE842F043
:10086000DC23ACF0D0E0FFD0E0FED0E0FDAB822096
:10087000E7101BEB60BAEC2CFCEF33FFEE33FEED20
:1008800033FD0209B6E803F830E705C0F075F00063
:10089000EF2FFFEE33FEED33FD40B830E7C280AA04
:1008A00074F8CC6480CCC86480C8F58204604FC3FF
:1008B000EB9FF5F0EA9E42F0E99D42F0E89C45F09E
:1008C000603C501DE5825FFFE582D313CB5BCBF428
:1008D0002B5582FB50280ABA002409B90020088051
:1008E0001DE5825BFBE582D313CF5FCFF4C3132FEB
:1008F0005582FF50090EBE00050DBD00010CC3EB73
:100900009FF5F0EA9E42F0E99D42F0E89C45F060D8
:0909100007CC4820E701B3EC22FA
:10091900ED33EC33600A047003BD8004ECB2E7FCEC
:0109290022AB
:10092A0075F020800E75F010800575F0087D007E48
:10093A00007F003392D530D503120A31EC334010D0
:10094A00EF33FFEE33FEED33FDEC33FCD5F0ED2251
:0E095A00E5F0247EA2D513CC92E7CDCEFF228D
:10096800EDD2E7CD33EC3392D524814006E4FFFE87
:10097800FDFC22FCE4CFCECDCC24E0501174FF80E6
:10098800EDC3CC13CCCD13CDCE13CECF13CF047083
:07099800F030D5DE020A3148
:10099F00E9D2E7C933E833F892D5EDD2E7CD33EC9E
:0709AF0033FC5002B2D52217
:1009B600EC30E7100FBF000C0EBE00080DBD0004A2
:1009C6000BEB6014A2D5EB13FCED92E7FD2274FF4E
:1009D600FCFDFEFF22E480F8A2D574FF13FC7D80A7
:0309E600E480EFBB
:03000000020CFCF3
:0C0CFC00787FE4F6D8FD758141020D43BD
:1009E900EF8DF0A4A8F0CF8CF0A428CE8DF0A42E22
:0209F900FE22DC
:1009FB00C2D5EC30E709B2D5E4C39DFDE49CFCEE17
:100A0B0030E715B2D5E4C39FFFE49EFE120A3FC345
:100A1B00E49DFDE49CFC8003120A3F30D507C3E440
:060A2B009FFFE49EFE2285
:0E0A3100C3E49FFFE49EFEE49DFDE49CFC22D6
:100D0800020DCFE493A3F8E493A34003F68001F225
:100D180008DFF48029E493A3F85407240CC8C333EC
:100D2800C4540F4420C8834004F456800146F6DFBB
:100D3800E4800B0102040810204080900E56E47EE7
:100D4800019360BCA3FF543F30E509541FFEE493B0
:100D5800A360010ECF54C025E060A840B8E493A377
:100D6800FAE493A3F8E493A3C8C582C8CAC583CAA2
:100D7800F0A3C8C582C8CAC583CADFE9DEE780BE5A
:010E7400007D
:100A3F00BC000BBE0029EF8DF084FFADF022E4CC9B
:100A4F00F875F008EF2FFFEE33FEEC33FCEE9DEC64
:100A5F00984005FCEE9DFE0FD5F0E9E4CEFD22EDAA
:100A6F00F8F5F0EE8420D21CFEADF075F008EF2FF4
:100A7F00FFED33FD4007985006D5F0F222C398FDE5
:050A8F000FD5F0EA2282
:00000001FF
